{
  "_format": "hh-sol-artifact-1",
  "contractName": "SwapMultiHop",
  "sourceName": "contracts/SwapMultiHop.sol",
  "abi": [
    {
      "inputs": [],
      "name": "DAI",
      "outputs": [
        {
          "internalType": "address",
          "name": "",
          "type": "address"
        }
      ],
      "stateMutability": "view",
      "type": "function"
    },
    {
      "inputs": [],
      "name": "USDC",
      "outputs": [
        {
          "internalType": "address",
          "name": "",
          "type": "address"
        }
      ],
      "stateMutability": "view",
      "type": "function"
    },
    {
      "inputs": [],
      "name": "WETH9",
      "outputs": [
        {
          "internalType": "address",
          "name": "",
          "type": "address"
        }
      ],
      "stateMutability": "view",
      "type": "function"
    },
    {
      "inputs": [
        {
          "internalType": "uint256",
          "name": "amountIn",
          "type": "uint256"
        }
      ],
      "name": "swapExactInputMultiHop",
      "outputs": [
        {
          "internalType": "uint256",
          "name": "amountOut",
          "type": "uint256"
        }
      ],
      "stateMutability": "nonpayable",
      "type": "function"
    },
    {
      "inputs": [
        {
          "internalType": "uint256",
          "name": "amountOut",
          "type": "uint256"
        },
        {
          "internalType": "uint256",
          "name": "amountInMaximum",
          "type": "uint256"
        }
      ],
      "name": "swapExactOutputMultiHop",
      "outputs": [
        {
          "internalType": "uint256",
          "name": "amountIn",
          "type": "uint256"
        }
      ],
      "stateMutability": "nonpayable",
      "type": "function"
    },
    {
      "inputs": [],
      "name": "swapRouter",
      "outputs": [
        {
          "internalType": "contract ISwapRouter",
          "name": "",
          "type": "address"
        }
      ],
      "stateMutability": "view",
      "type": "function"
    }
  ],
  "bytecode": "0x608060405234801561001057600080fd5b50610ae9806100206000396000f3fe608060405234801561001057600080fd5b50600436106100725760003560e01c8063c31c9c0711610050578063c31c9c07146100bd578063d05d4cdd146100c5578063e0bab4c4146100d857610072565b80634aa4a4fc1461007757806357688eda1461009557806389a30271146100b5575b600080fd5b61007f6100e0565b60405161008c9190610a83565b60405180910390f35b6100a86100a3366004610935565b6100f8565b60405161008c9190610aaa565b61007f61027b565b61007f610293565b6100a86100d3366004610965565b6102ab565b61007f610495565b73c02aaa39b223fe8d0a0e5c4f27ead9083c756cc281565b600061011a73c02aaa39b223fe8d0a0e5c4f27ead9083c756cc23330856104ad565b61014d73c02aaa39b223fe8d0a0e5c4f27ead9083c756cc273e592427a0aece92de3edee1f18e0157c0586156484610638565b6040805160a08101909152600090806101ac73c02aaa39b223fe8d0a0e5c4f27ead9083c756cc2610bb873a0b86991c6218b36c1d19d4a2e9eb0ce3606eb486064736b175474e89094c44da98b954eedeac495271d0f60c08701610a19565b6040516020818303038152906040528152602001336001600160a01b031681526020014281526020018481526020016000815250905073e592427a0aece92de3edee1f18e0157c058615646001600160a01b031663c04b8d59826040518263ffffffff1660e01b81526004016102229190610a97565b602060405180830381600087803b15801561023c57600080fd5b505af1158015610250573d6000803e3d6000fd5b505050506040513d601f19601f82011682018060405250810190610274919061094d565b9392505050565b73a0b86991c6218b36c1d19d4a2e9eb0ce3606eb4881565b73e592427a0aece92de3edee1f18e0157c0586156481565b60006102cd73c02aaa39b223fe8d0a0e5c4f27ead9083c756cc23330856104ad565b61030073c02aaa39b223fe8d0a0e5c4f27ead9083c756cc273e592427a0aece92de3edee1f18e0157c0586156484610638565b6040805160a081019091526000908061035f736b175474e89094c44da98b954eedeac495271d0f606473a0b86991c6218b36c1d19d4a2e9eb0ce3606eb48610bb873c02aaa39b223fe8d0a0e5c4f27ead9083c756cc260c08701610a19565b60408051601f198184030181529181529082523360208301524282820152606082018790526080909101859052517ff28c049800000000000000000000000000000000000000000000000000000000815290915073e592427a0aece92de3edee1f18e0157c058615649063f28c0498906103dd908490600401610a97565b602060405180830381600087803b1580156103f757600080fd5b505af115801561040b573d6000803e3d6000fd5b505050506040513d601f19601f8201168201806040525081019061042f919061094d565b91508282101561048e5761046d73c02aaa39b223fe8d0a0e5c4f27ead9083c756cc273e592427a0aece92de3edee1f18e0157c058615646000610638565b61048e73c02aaa39b223fe8d0a0e5c4f27ead9083c756cc2338486036107ba565b5092915050565b736b175474e89094c44da98b954eedeac495271d0f81565b604080516001600160a01b0385811660248301528481166044830152606480830185905283518084039091018152608490920183526020820180516001600160e01b03167f23b872dd00000000000000000000000000000000000000000000000000000000178152925182516000948594938a169392918291908083835b6020831061054a5780518252601f19909201916020918201910161052b565b6001836020036101000a0380198251168184511680821785525050505050509050019150506000604051808303816000865af19150503d80600081146105ac576040519150601f19603f3d011682016040523d82523d6000602084013e6105b1565b606091505b50915091508180156105df5750805115806105df57508080602001905160208110156105dc57600080fd5b50515b610630576040805162461bcd60e51b815260206004820152600360248201527f5354460000000000000000000000000000000000000000000000000000000000604482015290519081900360640190fd5b505050505050565b604080516001600160a01b038481166024830152604480830185905283518084039091018152606490920183526020820180516001600160e01b03167f095ea7b3000000000000000000000000000000000000000000000000000000001781529251825160009485949389169392918291908083835b602083106106cd5780518252601f1990920191602091820191016106ae565b6001836020036101000a0380198251168184511680821785525050505050509050019150506000604051808303816000865af19150503d806000811461072f576040519150601f19603f3d011682016040523d82523d6000602084013e610734565b606091505b5091509150818015610762575080511580610762575080806020019051602081101561075f57600080fd5b50515b6107b3576040805162461bcd60e51b815260206004820152600260248201527f5341000000000000000000000000000000000000000000000000000000000000604482015290519081900360640190fd5b5050505050565b604080516001600160a01b038481166024830152604480830185905283518084039091018152606490920183526020820180516001600160e01b03167fa9059cbb000000000000000000000000000000000000000000000000000000001781529251825160009485949389169392918291908083835b6020831061084f5780518252601f199092019160209182019101610830565b6001836020036101000a0380198251168184511680821785525050505050509050019150506000604051808303816000865af19150503d80600081146108b1576040519150601f19603f3d011682016040523d82523d6000602084013e6108b6565b606091505b50915091508180156108e45750805115806108e457508080602001905160208110156108e157600080fd5b50515b6107b3576040805162461bcd60e51b815260206004820152600260248201527f5354000000000000000000000000000000000000000000000000000000000000604482015290519081900360640190fd5b600060208284031215610946578081fd5b5035919050565b60006020828403121561095e578081fd5b5051919050565b60008060408385031215610977578081fd5b50508035926020909101359150565b6001600160a01b03169052565b6000815160a0845280518060a0860152825b818110156109c257602081840181015160c08884010152016109a5565b818111156109d3578360c083880101525b50602084015191506109e86020860183610986565b6040848101519086015260608085015190860152608093840151938501939093525050601f01601f19160160c00190565b6bffffffffffffffffffffffff19606096871b811682527fffffff000000000000000000000000000000000000000000000000000000000060e896871b8116601484015294871b811660178301529290941b909216602b840152921b909116602e82015260420190565b6001600160a01b0391909116815260200190565b6000602082526102746020830184610993565b9081526020019056fea2646970667358221220450c849902da20319930ffe5d2d3000cfe9c6b8d00779e9e36e37ebdf4fab38364736f6c63430007060033",
  "linkReferences": {},
  "deployedLinkReferences": {}
}