{
  "_format": "hh-sol-artifact-1",
  "contractName": "SwapMultiHop",
  "sourceName": "contracts/SwapMultiHop.sol",
  "abi": [
    {
      "inputs": [],
      "name": "DAI",
      "outputs": [
        {
          "internalType": "address",
          "name": "",
          "type": "address"
        }
      ],
      "stateMutability": "view",
      "type": "function"
    },
    {
      "inputs": [],
      "name": "USDC",
      "outputs": [
        {
          "internalType": "address",
          "name": "",
          "type": "address"
        }
      ],
      "stateMutability": "view",
      "type": "function"
    },
    {
      "inputs": [],
      "name": "WETH9",
      "outputs": [
        {
          "internalType": "address",
          "name": "",
          "type": "address"
        }
      ],
      "stateMutability": "view",
      "type": "function"
    },
    {
      "inputs": [
        {
          "internalType": "uint256",
          "name": "amountIn",
          "type": "uint256"
        }
      ],
      "name": "swapExactInputMultiHop",
      "outputs": [
        {
          "internalType": "uint256",
          "name": "amountOut",
          "type": "uint256"
        }
      ],
      "stateMutability": "nonpayable",
      "type": "function"
    },
    {
      "inputs": [
        {
          "internalType": "uint256",
          "name": "amountOut",
          "type": "uint256"
        },
        {
          "internalType": "uint256",
          "name": "amountInMaximum",
          "type": "uint256"
        }
      ],
      "name": "swapExactOutputMultiHop",
      "outputs": [
        {
          "internalType": "uint256",
          "name": "amountIn",
          "type": "uint256"
        }
      ],
      "stateMutability": "nonpayable",
      "type": "function"
    },
    {
      "inputs": [],
      "name": "swapRouter",
      "outputs": [
        {
          "internalType": "contract ISwapRouter",
          "name": "",
          "type": "address"
        }
      ],
      "stateMutability": "view",
      "type": "function"
    }
  ],
  "bytecode": "0x608060405234801561001057600080fd5b50610a37806100206000396000f3fe608060405234801561001057600080fd5b50600436106100725760003560e01c8063c31c9c0711610050578063c31c9c07146100eb578063d05d4cdd14610106578063e0bab4c41461011957600080fd5b80634aa4a4fc1461007757806357688eda146100af57806389a30271146100d0575b600080fd5b61009273c02aaa39b223fe8d0a0e5c4f27ead9083c756cc281565b6040516001600160a01b0390911681526020015b60405180910390f35b6100c26100bd366004610893565b610134565b6040519081526020016100a6565b61009273a0b86991c6218b36c1d19d4a2e9eb0ce3606eb4881565b61009273e592427a0aece92de3edee1f18e0157c0586156481565b6100c26101143660046108ac565b6102df565b610092736b175474e89094c44da98b954eedeac495271d0f81565b600061015673c02aaa39b223fe8d0a0e5c4f27ead9083c756cc23330856104f0565b61018973c02aaa39b223fe8d0a0e5c4f27ead9083c756cc273e592427a0aece92de3edee1f18e0157c0586156484610632565b6040805160a0810182527fc02aaa39b223fe8d0a0e5c4f27ead9083c756cc200000000000000000000000060c082015261017760eb1b60d48201527fa0b86991c6218b36c1d19d4a2e9eb0ce3606eb4800000000000000000000000060d7820152601960ea1b60eb8201527f6b175474e89094c44da98b954eedeac495271d0f00000000000000000000000060ee820152815160e28183030181526101028201835281523360208201524281830152606081018490526000608082015290517fc04b8d5900000000000000000000000000000000000000000000000000000000815273e592427a0aece92de3edee1f18e0157c058615649063c04b8d5990610295908490600401610957565b6020604051808303816000875af11580156102b4573d6000803e3d6000fd5b505050506040513d601f19601f820116820180604052508101906102d8919061096a565b9392505050565b600061030173c02aaa39b223fe8d0a0e5c4f27ead9083c756cc23330856104f0565b61033473c02aaa39b223fe8d0a0e5c4f27ead9083c756cc273e592427a0aece92de3edee1f18e0157c0586156484610632565b6040805160a0810182527f6b175474e89094c44da98b954eedeac495271d0f00000000000000000000000060c0820152601960ea1b60d48201527fa0b86991c6218b36c1d19d4a2e9eb0ce3606eb4800000000000000000000000060d782015261017760eb1b60eb8201527fc02aaa39b223fe8d0a0e5c4f27ead9083c756cc200000000000000000000000060ee820152815160e28183030181526101028201835281523360208201524281830152606081018590526080810184905290517ff28c049800000000000000000000000000000000000000000000000000000000815273e592427a0aece92de3edee1f18e0157c058615649063f28c049890610440908490600401610957565b6020604051808303816000875af115801561045f573d6000803e3d6000fd5b505050506040513d601f19601f82011682018060405250810190610483919061096a565b9150828210156104e9576104c173c02aaa39b223fe8d0a0e5c4f27ead9083c756cc273e592427a0aece92de3edee1f18e0157c058615646000610632565b6104e973c02aaa39b223fe8d0a0e5c4f27ead9083c756cc2336104e48587610983565b610766565b5092915050565b604080516001600160a01b0385811660248301528481166044830152606480830185905283518084039091018152608490920183526020820180516001600160e01b03167f23b872dd00000000000000000000000000000000000000000000000000000000179052915160009283929088169161056d91906109c3565b6000604051808303816000865af19150503d80600081146105aa576040519150601f19603f3d011682016040523d82523d6000602084013e6105af565b606091505b50915091508180156105d95750805115806105d95750808060200190518101906105d991906109df565b61062a5760405162461bcd60e51b815260206004820152600360248201527f535446000000000000000000000000000000000000000000000000000000000060448201526064015b60405180910390fd5b505050505050565b604080516001600160a01b038481166024830152604480830185905283518084039091018152606490920183526020820180516001600160e01b03167f095ea7b30000000000000000000000000000000000000000000000000000000017905291516000928392908716916106a791906109c3565b6000604051808303816000865af19150503d80600081146106e4576040519150601f19603f3d011682016040523d82523d6000602084013e6106e9565b606091505b509150915081801561071357508051158061071357508080602001905181019061071391906109df565b61075f5760405162461bcd60e51b815260206004820152600260248201527f53410000000000000000000000000000000000000000000000000000000000006044820152606401610621565b5050505050565b604080516001600160a01b038481166024830152604480830185905283518084039091018152606490920183526020820180516001600160e01b03167fa9059cbb0000000000000000000000000000000000000000000000000000000017905291516000928392908716916107db91906109c3565b6000604051808303816000865af19150503d8060008114610818576040519150601f19603f3d011682016040523d82523d6000602084013e61081d565b606091505b509150915081801561084757508051158061084757508080602001905181019061084791906109df565b61075f5760405162461bcd60e51b815260206004820152600260248201527f53540000000000000000000000000000000000000000000000000000000000006044820152606401610621565b6000602082840312156108a557600080fd5b5035919050565b600080604083850312156108bf57600080fd5b50508035926020909101359150565b60005b838110156108e95781810151838201526020016108d1565b50506000910152565b6000815160a0845280518060a08601526109138160c08701602085016108ce565b6020848101516001600160a01b0316908601526040808501519086015260608085015190860152608093840151938501939093525050601f01601f19160160c00190565b6020815260006102d860208301846108f2565b60006020828403121561097c57600080fd5b5051919050565b818103818111156109bd577f4e487b7100000000000000000000000000000000000000000000000000000000600052601160045260246000fd5b92915050565b600082516109d58184602087016108ce565b9190910192915050565b6000602082840312156109f157600080fd5b815180151581146102d857600080fdfea2646970667358221220ac575101111565876b883bf7eea107b88c1ff114c370f5cad386431aa27ddcf864736f6c63430008110033",
  "linkReferences": {},
  "deployedLinkReferences": {}
}